{
  "_format": "hh-sol-artifact-1",
  "contractName": "FoodTraceability",
  "sourceName": "contracts/FoodTraceability.sol",
  "abi": [
    {
      "anonymous": false,
      "inputs": [
        {
          "indexed": true,
          "internalType": "uint256",
          "name": "productId",
          "type": "uint256"
        },
        {
          "indexed": false,
          "internalType": "string",
          "name": "name",
          "type": "string"
        },
        {
          "indexed": false,
          "internalType": "string",
          "name": "origin",
          "type": "string"
        },
        {
          "indexed": false,
          "internalType": "string",
          "name": "productionDate",
          "type": "string"
        }
      ],
      "name": "ProductAdded",
      "type": "event"
    },
    {
      "inputs": [
        {
          "internalType": "string",
          "name": "_name",
          "type": "string"
        },
        {
          "internalType": "string",
          "name": "_origin",
          "type": "string"
        },
        {
          "internalType": "string",
          "name": "_productionDate",
          "type": "string"
        },
        {
          "internalType": "string",
          "name": "_farmingProcess",
          "type": "string"
        },
        {
          "internalType": "string",
          "name": "_transportation",
          "type": "string"
        },
        {
          "internalType": "string",
          "name": "_storageInfo",
          "type": "string"
        },
        {
          "internalType": "string",
          "name": "_salesInfo",
          "type": "string"
        }
      ],
      "name": "addProduct",
      "outputs": [
        {
          "internalType": "uint256",
          "name": "",
          "type": "uint256"
        }
      ],
      "stateMutability": "nonpayable",
      "type": "function"
    },
    {
      "inputs": [
        {
          "internalType": "uint256",
          "name": "_productId",
          "type": "uint256"
        }
      ],
      "name": "getProduct",
      "outputs": [
        {
          "internalType": "string",
          "name": "",
          "type": "string"
        },
        {
          "internalType": "string",
          "name": "",
          "type": "string"
        },
        {
          "internalType": "string",
          "name": "",
          "type": "string"
        },
        {
          "internalType": "string",
          "name": "",
          "type": "string"
        },
        {
          "internalType": "string",
          "name": "",
          "type": "string"
        },
        {
          "internalType": "string",
          "name": "",
          "type": "string"
        },
        {
          "internalType": "string",
          "name": "",
          "type": "string"
        }
      ],
      "stateMutability": "view",
      "type": "function"
    },
    {
      "inputs": [],
      "name": "productCount",
      "outputs": [
        {
          "internalType": "uint256",
          "name": "",
          "type": "uint256"
        }
      ],
      "stateMutability": "view",
      "type": "function"
    },
    {
      "inputs": [
        {
          "internalType": "uint256",
          "name": "",
          "type": "uint256"
        }
      ],
      "name": "products",
      "outputs": [
        {
          "internalType": "string",
          "name": "name",
          "type": "string"
        },
        {
          "internalType": "string",
          "name": "origin",
          "type": "string"
        },
        {
          "internalType": "string",
          "name": "productionDate",
          "type": "string"
        },
        {
          "internalType": "string",
          "name": "farmingProcess",
          "type": "string"
        },
        {
          "internalType": "string",
          "name": "transportation",
          "type": "string"
        },
        {
          "internalType": "string",
          "name": "storageInfo",
          "type": "string"
        },
        {
          "internalType": "string",
          "name": "salesInfo",
          "type": "string"
        }
      ],
      "stateMutability": "view",
      "type": "function"
    }
  ],
  "bytecode": "0x6080604052348015600f57600080fd5b506116ca8061001f6000396000f3fe608060405234801561001057600080fd5b506004361061004c5760003560e01c806367a6377a146100515780637acc0b2014610081578063b9db15b4146100b7578063e0f6ef87146100ed575b600080fd5b61006b60048036038101906100669190610eff565b61010b565b604051610078919061107e565b60405180910390f35b61009b600480360381019061009691906110c5565b610317565b6040516100ae9796959493929190611171565b60405180910390f35b6100d160048036038101906100cc91906110c5565b610711565b6040516100e49796959493929190611171565b60405180910390f35b6100f5610b78565b604051610102919061107e565b60405180910390f35b600061014e6040518060400160405280601681526020017f42617420646175207468656d2073616e207068616d3a00000000000000000000815250898989610b7e565b6001600081548092919061016190611240565b91905055506101a76040518060400160405280600c81526020017f53616e207068616d2049443a0000000000000000000000000000000000000000815250600154610c20565b6040518060e0016040528089815260200188815260200187815260200186815260200185815260200184815260200183815250600080600154815260200190815260200160002060008201518160000190816102039190611494565b5060208201518160010190816102199190611494565b50604082015181600201908161022f9190611494565b5060608201518160030190816102459190611494565b50608082015181600401908161025b9190611494565b5060a08201518160050190816102719190611494565b5060c08201518160060190816102879190611494565b509050506001547f2ad97e35e5231a127d0d7b6cd0aa552ec47d312eff0ef74961fb06c5ae9268848989896040516102c193929190611566565b60405180910390a26103076040518060400160405280601c81526020017f4461207468616d2073616e207068616d207468616e6820636f6e672100000000815250610cbc565b6001549050979650505050505050565b600060205280600052604060002060009150905080600001805461033a906112b7565b80601f0160208091040260200160405190810160405280929190818152602001828054610366906112b7565b80156103b35780601f10610388576101008083540402835291602001916103b3565b820191906000526020600020905b81548152906001019060200180831161039657829003601f168201915b5050505050908060010180546103c8906112b7565b80601f01602080910402602001604051908101604052809291908181526020018280546103f4906112b7565b80156104415780601f1061041657610100808354040283529160200191610441565b820191906000526020600020905b81548152906001019060200180831161042457829003601f168201915b505050505090806002018054610456906112b7565b80601f0160208091040260200160405190810160405280929190818152602001828054610482906112b7565b80156104cf5780601f106104a4576101008083540402835291602001916104cf565b820191906000526020600020905b8154815290600101906020018083116104b257829003601f168201915b5050505050908060030180546104e4906112b7565b80601f0160208091040260200160405190810160405280929190818152602001828054610510906112b7565b801561055d5780601f106105325761010080835404028352916020019161055d565b820191906000526020600020905b81548152906001019060200180831161054057829003601f168201915b505050505090806004018054610572906112b7565b80601f016020809104026020016040519081016040528092919081815260200182805461059e906112b7565b80156105eb5780601f106105c0576101008083540402835291602001916105eb565b820191906000526020600020905b8154815290600101906020018083116105ce57829003601f168201915b505050505090806005018054610600906112b7565b80601f016020809104026020016040519081016040528092919081815260200182805461062c906112b7565b80156106795780601f1061064e57610100808354040283529160200191610679565b820191906000526020600020905b81548152906001019060200180831161065c57829003601f168201915b50505050509080600601805461068e906112b7565b80601f01602080910402602001604051908101604052809291908181526020018280546106ba906112b7565b80156107075780601f106106dc57610100808354040283529160200191610707565b820191906000526020600020905b8154815290600101906020018083116106ea57829003601f168201915b5050505050905087565b606080606080606080606060008060008a81526020019081526020016000206040518060e001604052908160008201805461074b906112b7565b80601f0160208091040260200160405190810160405280929190818152602001828054610777906112b7565b80156107c45780601f10610799576101008083540402835291602001916107c4565b820191906000526020600020905b8154815290600101906020018083116107a757829003601f168201915b505050505081526020016001820180546107dd906112b7565b80601f0160208091040260200160405190810160405280929190818152602001828054610809906112b7565b80156108565780601f1061082b57610100808354040283529160200191610856565b820191906000526020600020905b81548152906001019060200180831161083957829003601f168201915b5050505050815260200160028201805461086f906112b7565b80601f016020809104026020016040519081016040528092919081815260200182805461089b906112b7565b80156108e85780601f106108bd576101008083540402835291602001916108e8565b820191906000526020600020905b8154815290600101906020018083116108cb57829003601f168201915b50505050508152602001600382018054610901906112b7565b80601f016020809104026020016040519081016040528092919081815260200182805461092d906112b7565b801561097a5780601f1061094f5761010080835404028352916020019161097a565b820191906000526020600020905b81548152906001019060200180831161095d57829003601f168201915b50505050508152602001600482018054610993906112b7565b80601f01602080910402602001604051908101604052809291908181526020018280546109bf906112b7565b8015610a0c5780601f106109e157610100808354040283529160200191610a0c565b820191906000526020600020905b8154815290600101906020018083116109ef57829003601f168201915b50505050508152602001600582018054610a25906112b7565b80601f0160208091040260200160405190810160405280929190818152602001828054610a51906112b7565b8015610a9e5780601f10610a7357610100808354040283529160200191610a9e565b820191906000526020600020905b815481529060010190602001808311610a8157829003601f168201915b50505050508152602001600682018054610ab7906112b7565b80601f0160208091040260200160405190810160405280929190818152602001828054610ae3906112b7565b8015610b305780601f10610b0557610100808354040283529160200191610b30565b820191906000526020600020905b815481529060010190602001808311610b1357829003601f168201915b5050505050815250509050806000015181602001518260400151836060015184608001518560a001518660c00151975097509750975097509750975050919395979092949650565b60015481565b610c1a84848484604051602401610b9894939291906115b2565b6040516020818303038152906040527fde68f20a000000000000000000000000000000000000000000000000000000007bffffffffffffffffffffffffffffffffffffffffffffffffffffffff19166020820180517bffffffffffffffffffffffffffffffffffffffffffffffffffffffff8381831617835250505050610d55565b50505050565b610cb88282604051602401610c36929190611613565b6040516020818303038152906040527fb60e72cc000000000000000000000000000000000000000000000000000000007bffffffffffffffffffffffffffffffffffffffffffffffffffffffff19166020820180517bffffffffffffffffffffffffffffffffffffffffffffffffffffffff8381831617835250505050610d55565b5050565b610d5281604051602401610cd09190611643565b6040516020818303038152906040527f41304fac000000000000000000000000000000000000000000000000000000007bffffffffffffffffffffffffffffffffffffffffffffffffffffffff19166020820180517bffffffffffffffffffffffffffffffffffffffffffffffffffffffff8381831617835250505050610d55565b50565b610d6c81610d64610d6f610d90565b63ffffffff16565b50565b60006a636f6e736f6c652e6c6f679050600080835160208501845afa505050565b610d9b819050919050565b610da3611665565b565b6000604051905090565b600080fd5b600080fd5b600080fd5b600080fd5b6000601f19601f8301169050919050565b7f4e487b7100000000000000000000000000000000000000000000000000000000600052604160045260246000fd5b610e0c82610dc3565b810181811067ffffffffffffffff82111715610e2b57610e2a610dd4565b5b80604052505050565b6000610e3e610da5565b9050610e4a8282610e03565b919050565b600067ffffffffffffffff821115610e6a57610e69610dd4565b5b610e7382610dc3565b9050602081019050919050565b82818337600083830152505050565b6000610ea2610e9d84610e4f565b610e34565b905082815260208101848484011115610ebe57610ebd610dbe565b5b610ec9848285610e80565b509392505050565b600082601f830112610ee657610ee5610db9565b5b8135610ef6848260208601610e8f565b91505092915050565b600080600080600080600060e0888a031215610f1e57610f1d610daf565b5b600088013567ffffffffffffffff811115610f3c57610f3b610db4565b5b610f488a828b01610ed1565b975050602088013567ffffffffffffffff811115610f6957610f68610db4565b5b610f758a828b01610ed1565b965050604088013567ffffffffffffffff811115610f9657610f95610db4565b5b610fa28a828b01610ed1565b955050606088013567ffffffffffffffff811115610fc357610fc2610db4565b5b610fcf8a828b01610ed1565b945050608088013567ffffffffffffffff811115610ff057610fef610db4565b5b610ffc8a828b01610ed1565b93505060a088013567ffffffffffffffff81111561101d5761101c610db4565b5b6110298a828b01610ed1565b92505060c088013567ffffffffffffffff81111561104a57611049610db4565b5b6110568a828b01610ed1565b91505092959891949750929550565b6000819050919050565b61107881611065565b82525050565b6000602082019050611093600083018461106f565b92915050565b6110a281611065565b81146110ad57600080fd5b50565b6000813590506110bf81611099565b92915050565b6000602082840312156110db576110da610daf565b5b60006110e9848285016110b0565b91505092915050565b600081519050919050565b600082825260208201905092915050565b60005b8381101561112c578082015181840152602081019050611111565b60008484015250505050565b6000611143826110f2565b61114d81856110fd565b935061115d81856020860161110e565b61116681610dc3565b840191505092915050565b600060e082019050818103600083015261118b818a611138565b9050818103602083015261119f8189611138565b905081810360408301526111b38188611138565b905081810360608301526111c78187611138565b905081810360808301526111db8186611138565b905081810360a08301526111ef8185611138565b905081810360c08301526112038184611138565b905098975050505050505050565b7f4e487b7100000000000000000000000000000000000000000000000000000000600052601160045260246000fd5b600061124b82611065565b91507fffffffffffffffffffffffffffffffffffffffffffffffffffffffffffffffff820361127d5761127c611211565b5b600182019050919050565b7f4e487b7100000000000000000000000000000000000000000000000000000000600052602260045260246000fd5b600060028204905060018216806112cf57607f821691505b6020821081036112e2576112e1611288565b5b50919050565b60008190508160005260206000209050919050565b60006020601f8301049050919050565b600082821b905092915050565b60006008830261134a7fffffffffffffffffffffffffffffffffffffffffffffffffffffffffffffffff8261130d565b611354868361130d565b95508019841693508086168417925050509392505050565b6000819050919050565b600061139161138c61138784611065565b61136c565b611065565b9050919050565b6000819050919050565b6113ab83611376565b6113bf6113b782611398565b84845461131a565b825550505050565b600090565b6113d46113c7565b6113df8184846113a2565b505050565b5b81811015611403576113f86000826113cc565b6001810190506113e5565b5050565b601f82111561144857611419816112e8565b611422846112fd565b81016020851015611431578190505b61144561143d856112fd565b8301826113e4565b50505b505050565b600082821c905092915050565b600061146b6000198460080261144d565b1980831691505092915050565b6000611484838361145a565b9150826002028217905092915050565b61149d826110f2565b67ffffffffffffffff8111156114b6576114b5610dd4565b5b6114c082546112b7565b6114cb828285611407565b600060209050601f8311600181146114fe57600084156114ec578287015190505b6114f68582611478565b86555061155e565b601f19841661150c866112e8565b60005b828110156115345784890151825560018201915060208501945060208101905061150f565b86831015611551578489015161154d601f89168261145a565b8355505b6001600288020188555050505b505050505050565b600060608201905081810360008301526115808186611138565b905081810360208301526115948185611138565b905081810360408301526115a88184611138565b9050949350505050565b600060808201905081810360008301526115cc8187611138565b905081810360208301526115e08186611138565b905081810360408301526115f48185611138565b905081810360608301526116088184611138565b905095945050505050565b6000604082019050818103600083015261162d8185611138565b905061163c602083018461106f565b9392505050565b6000602082019050818103600083015261165d8184611138565b905092915050565b7f4e487b7100000000000000000000000000000000000000000000000000000000600052605160045260246000fdfea2646970667358221220c6a8eadde208192c032e67846aaf2fdf9a1c9287f1b588fcde0ba675b09ca4ec64736f6c634300081c0033",
  "linkReferences": {},
  "deployedLinkReferences": {}
}